:100000000C9434000C9451000C9451000C94510049
:100010000C9451000C9451000C9451000C9451001C
:100020000C9451000C9451000C9451000C9451000C
:100030000C9451000C9451000C9451000C945100FC
:100040000C9451000C9451000C9451000C945100EC
:100050000C9451000C9451000C9451000C945100DC
:100060000C9451000C94510011241FBECFEFD8E026
:10007000DEBFCDBF11E0A0E0B1E0E4E4F6E002C0F5
:1000800005900D92AC3FB107D9F711E0ACEFB1E0AC
:1000900001C01D92AC3FB107E1F70E9453000C94E0
:1000A00020030C940000CF93DF93CDB7DEB7A89761
:1000B0000FB6F894DEBF0FBECDBFCE0101960E94F1
:1000C000E10260E070E0CE0101960E94EC02F9CFFF
:1000D000FC01158E148E848D958D8D3091055CF408
:1000E000DC01AA0FBB1FAE0FBF1F1D921C92019611
:1000F000958F848FF0CF0895FC0185E090E0978F75
:10010000868F83E290E091A380A313A212A215A28E
:1001100014A281E086A3CF010C946800DB01ED916D
:10012000FC91DC015D96FC93EE935C97EE0FFF1F54
:10013000E80FF91F80819181DB0112962D913C918E
:100140001397822B932B9183808308956CEE71E03B
:100150000C948E00FC01868D978D009789F08C3071
:10016000910571F06CE070E00E94F802019719F4BB
:1001700064EB71E002C060EB71E0CF010C948E0083
:100180000895CF93DF93EC018E8D9F8D8C30910578
:1001900019F468ED71E00BC06CE070E00E94F802A9
:1001A000880F991F845D9E4FFC0160817181CE0193
:1001B0000E948E00CE01DF91CF910C94AA006F3087
:1001C000710551F06130710519F068E471E002C009
:1001D00064E471E00C948E000895CF92DF92EF9268
:1001E000FF920F931F93CF93DF93EC018B017A0162
:1001F00069016115710511F00E948E00EC14FD0477
:100200000CF5C6018E199F097C0191E0E916F104F5
:1002100039F4012B29F06CE871E0CE010E948E00C8
:10022000F701EE0FFF1FE85EFE4F60817181CE0186
:10023000DF91CF911F910F91FF90EF90DF90CF90C2
:100240000C948E00DF91CF911F910F91FF90EF9052
:10025000DF90CF9008950F931F93CF93DF938C017E
:10026000FC01C0A1D1A1209709F457C0C832D10523
:100270009CF06CEA71E00E948E008CE390E09C019F
:100280002C1B3D0BE9012F303105D1F464EA71E0FC
:10029000C8010E948E0014C068EA71E00E948E00BE
:1002A000CE31D10569F4F80186A1882349F068E8C8
:1002B00071E0C801DF91CF911F910F910C948E00D6
:1002C000CE010B97069758F4FE01EE0FFF1FE85082
:1002D000FF4F60817181C8010E948E0016C0CE015F
:1002E0006AE070E00E94F8028AE0869FA001879F82
:1002F000500D1124FB01EE0FFF1FE050FF4F6081F6
:1003000071819E01C8010E94ED00BE01C801DF910C
:10031000CF911F910F910C94DF00DF91CF911F912E
:100320000F910895CF93DF93EC010E946800CE01F6
:100330000E94A600CE010E94C100CE01DF91CF91A4
:100340000C942B010C9492010C94A8020C94AA0218
:1003500028E030E02150310978F05F98AC01022E9E
:1003600002C0559547950A94E2F740FF02C0289ACB
:1003700001C028985F9AEECF0895EF92FF920F93F5
:100380001F93CF93DF937C018B015E98C1E0D0E097
:100390008091FA019091FB018C179D0744F0C701F1
:1003A0000E94A801C8010E94A8012196F1CF5E9A7F
:1003B0005E98DF91CF911F910F91FF90EF9008957C
:1003C000CF93DF93209A569A579A5E9A28985F980F
:1003D00067E070E08091F4019091F5010E94BD0109
:1003E00060E070E08091F8019091F9010E94BD01F8
:1003F00061E070E08091F2019091F3010E94BD01F3
:1004000060E070E08091F0019091F1010E94BD01E7
:1004100060E070E08091F6019091F7010E94BD01CB
:10042000C0E0D0E0219660E070E0CE010E94BD0106
:10043000C830D105B9F7DF91CF91089580E090E001
:100440000C94A801660F771F680F791FFB0180814C
:10045000918102C0959587954A95E2F741E050E079
:10046000022E02C0440F551F0A94E2F74150510971
:100470008423952348E050E0421B530B02C0880FB1
:10048000991F4A95E2F70E94A80108950F931F93C0
:10049000FB018630910584F46CE070E0681B790BF9
:1004A00001E010E028E030E047E050E0CF010E949A
:1004B00022021F910F9108951F910F910C941E021B
:1004C0000F931F93FB018630910584F46CE070E07C
:1004D000681B790B02E010E027E030E040E050E0DC
:1004E000CF010E9422021F910F9108951F910F9139
:1004F0000C941E020F931F93FB01873091056CF43F
:1005000003E010E027E030E040E050E0BC01CF0124
:100510000E9422021F910F9108951F910F910C9438
:100520001E020F931F93FB01873091056CF404E0CA
:1005300010E028E030E047E050E0BC01CF010E942D
:1005400022021F910F9108951F910F910C941E028A
:100550000C94E001EF92FF920F931F93CF93DF93E0
:100560007B01C0E0D0E05E988E010F5F1F4FC80195
:100570000E94A801B701CE010E949102C8010E9409
:10058000A801B701CE010E947A02C8010E94A80109
:10059000B701CE010E946002C8010E94A801B70104
:1005A000CE010E9446025E9A5E980830110511F055
:1005B000E801D9CFDF91CF911F910F91FF90EF907C
:1005C0000895CF93DF93EC010E947C00CE018796C3
:1005D000DF91CF910C94A401CF93DF93EC010E94A3
:1005E000A201BE01CE018796DF91CF910C94A601A6
:1005F00097FB072E16F4009407D077FD09D00E94D0
:100600000C0307FC05D03EF4909581959F4F08950B
:10061000709561957F4F0895AA1BBB1B51E107C0E0
:10062000AA1FBB1FA617B70710F0A61BB70B881F82
:10063000991F5A95A9F780959095BC01CD01089511
:04064000F894FFCF5C
:10064400000090019C019401A001980190014C01CB
:1006540074017801540160015C01580184016C014A
:100664008001640168017C0170015001D001C40162
:10067400E801E001C801CC01DC01E401B801C001DA
:10068400D401BC010C00FC000C00FE000C00003C7A
:100694000B000F000B00F00F0B0000700A001F008E
:1006A4000A00C0070A00003C0900070009007C009A
:1006B4000900C0030900007C08003F000800E001B5
:1006C4000800007E07000F000700E0010700000695
:1006D4000700007006003F000600C07F05001F00F1
:1006E4000500E01F050000600400600004001F0016
:1006F4000400007E0400007C03000F000300F000EF
:100704000300000F0300007002003F000200E0013C
:100714000200007E0100070001001E000100E0004D
:100724000100800F0100007800007800000000370D
:0C0734000F000C000B000A00090004007C
:00000001FF
