:100000000C9435000C945D000C945D000C945D0024
:100010000C945D000C945D000C945D000C945D00EC
:100020000C945D000C945D000C945D000C945D00DC
:100030000C945D000C945D000C945D000C945D00CC
:100040000C945D000C945D000C94AE0B0C945D0060
:100050000C94760B0C945D000C945D000C945D0088
:100060000C943C090C945D00A00611241FBECFEF38
:10007000D8E0DEBFCDBF12E0A0E0B1E0EAE3FEE1F0
:1000800002C005900D92A034B107D9F723E0A0E497
:10009000B2E001C01D92A73FB207E1F710E0CAE647
:1000A000D0E004C02297FE010E94460CC836D1075A
:1000B000C9F70E9475060C941B0F0C9400000C9459
:1000C000A2030C94A9030C94A603FC0113A612A688
:1000D00011A610A608950E94DF0A60E875E280E08C
:1000E00090E00E94F80A8EEF91E00E94670B0E9458
:1000F000620A0C944D070F931F93CF93DF9300D0A8
:10010000CDB7DEB78C010E947C07D80199969C93ED
:100110008E939897BE016F5F7F4FCE0102960E942B
:100120005B08D8019896ED91FC91999789811F926F
:100130008F932A81822F992787FD90959F932F93E4
:1001400085858F9384858F9383858F9382858F9305
:1001500081858F9380858F9387818F9386818F93FD
:1001600081818F9380818F9383818F9382818F93FD
:1001700085818F9384818F938FE092E09F938F93FB
:100180001F930F930E944A0CC8010E94670B0FB681
:10019000F894DEBF0FBECDBF0F900F90DF91CF91CF
:1001A0001F910F910895FC0186A197A1FC01268162
:1001B0003781620F731F0C94D906FF920F931F9320
:1001C000CF93DF93EC018B010E94D300F82EB8018E
:1001D0006F5F7F4FCE010E94D3002F2D332727FD65
:1001E0003095205331099AE0929FA001939F500DC2
:1001F0001124992787FD9095C097840F951FDF9153
:10020000CF911F910F91FF900895CF93DF93EC0151
:100210006AA17BA16D5F7F4F0E94DD008CA79DA727
:100220009F938F938CE292E09F938F93DF93CF9372
:100230000E944A0C0F900F900F900F900F900F900C
:10024000CE01DF91CF910C94670BCF93DF93EC013C
:100250006AA17BA16C5F7F4F0E94DD008AA79BA7EC
:100260009F938F9386E392E09F938F93DF93CF9337
:100270000E944A0C0F900F900F900F900F900F90CC
:10028000CE01DF91CF910C94670BEF92FF920F9309
:100290001F93CF93DF93EC010E947C078C0199A7F9
:1002A00088A76AA17BA179A368A36F5F7F4FCE0166
:1002B0000E94DD00F8019583848308A519A568A133
:1002C00079A16C5F7F4FCE010E94DD00F80193831E
:1002D000828308A519A568A179A1695F7F4FCE0126
:1002E0000E94DD00F8019183808308A519A568A10B
:1002F00079A1665F7F4FCE010E94DD00F8019783F0
:10030000868308A519A568A179A1635F7F4FCE01F7
:100310000E94DD00F8019187808708A519A568A1D2
:1003200079A1605F7F4FCE010E94DD007C0168A152
:1003300079A16E5E7F4FCE010E94DD0044E64E9DA6
:1003400090014F9D300D1124280F391FF80133877C
:10035000228708A519A568A179A16B5E7F4FCE0100
:100360000E94DD00F8019587848788A599A5DF9113
:10037000CF911F910F91FF90EF900C941708CF939E
:10038000DF93EC01EEA1FFA182819381039708F432
:1003900049C01BA21AA21DA21CA281E090E099A351
:1003A00088A368A179A1EEA1FFA18281938168173A
:1003B000790788F461507109CE010E94D30028A109
:1003C00039A18E3519F43BA32AA305C02F5F3F4FF7
:1003D00039A328A3E6CF8AA19BA1019699A388A35C
:1003E00068A179A1EEA1FFA18281938168177907A5
:1003F00088F4CE010E94D30028A139A1843229F4C7
:10040000215031093DA32CA305C02F5F3F4F39A3D5
:1004100028A3E6CF81E04AA15BA12CA13DA1421710
:1004200053070CF080E0DF91CF910895CF93DF93D5
:10043000EC010E942C0B811161C00E941B0B9FA339
:100440008EA3CE010E94BF01882309F457C08CA15E
:100450009DA12AA13BA1821B930B469731F4CE01AB
:100460000E944501CE010E947B006AA17BA18CA164
:100470009DA1861B970B049729F4CE010E94D300FF
:10048000833759F16AA17BA18CA19DA1861B970B93
:10049000039729F4CE010E94D300803711F16AA19D
:1004A0007BA18CA19DA1861B970B039729F4CE01FC
:1004B0000E94D3008936D1F06AA17BA18CA19DA1B5
:1004C000861B970B059729F4CE010E94D3008D3629
:1004D00089F0DF91CF910C94270BCE010E9405018A
:1004E000D1CF8AE092E00E94670BD9CFCE010E9463
:1004F0007B00E2CFCE010E942501EBCFDF91CF91AF
:10050000089528E030E02150310978F05C98AC0182
:10051000022E02C0559547950A94E2F740FF02C0AB
:100520005A9A01C05A985C9AEECF0895EF92FF92C2
:100530000F931F93CF93DF937C018B015B98C1E0F6
:10054000D0E080910A0190910B018C179D0744F037
:10055000C7010E948102C8010E9481022196F1CF49
:100560005B9A5B98DF91CF911F910F91FF90EF9075
:100570000895CF93DF93EC01529A539A549A5B9A61
:100580005A985C9867E070E08091040190910501B1
:100590000E94960260E070E080910801909109014C
:1005A0000E94960261E070E0809102019091030147
:1005B0000E94960260E070E080910001909101013C
:1005C0000E949602BE017727809106019091070153
:1005D0000E949602C0E0D0E0219660E070E0CE017B
:1005E0000E949602C830D105B9F7DF91CF910895E6
:1005F00080E090E00C948102660F771F680F791FEE
:10060000FB018081918102C0959587954A95E2F71B
:1006100041E050E0022E02C0440F551F0A94E2F759
:10062000415051098423952348E050E0421B530B6D
:1006300002C0880F991F4A95E2F70E94810208952F
:100640000F931F93FB018630910584F46CE070E0FA
:10065000681B790B01E010E028E030E047E050E053
:10066000CF010E94FC021F910F910895079731F46A
:1006700080E090E01F910F910C9481021F910F91E7
:100680000C94F8020F931F93FB018630910584F4BC
:100690006CE070E0681B790B02E010E027E030E0CE
:1006A00040E050E0CF010E94FC021F910F9108959D
:1006B000079731F480E090E01F910F910C94810234
:1006C0001F910F910C94F8020F931F93FB01873039
:1006D00091056CF403E010E027E030E040E050E0EA
:1006E000BC01CF010E94FC021F910F910895079752
:1006F00031F480E090E01F910F910C9481021F91E2
:100700000F910C94F8020F931F93FB018730910512
:100710006CF404E010E028E030E047E050E0BC0179
:10072000CF010E94FC021F910F910895079731F4A9
:1007300080E090E01F910F910C9481021F910F9126
:100740000C94F8028FEF90E00C94B902CB010C945A
:10075000B902EF92FF920F931F93CF93DF937B0128
:10076000C0E0D0E05B988E010F5F1F4FC8010E9470
:100770008102B701CE010E948303C8010E94810259
:10078000B701CE010E946403C8010E948102B70133
:10079000CE010E944203C8010E948102B701CE012E
:1007A0000E9420035B9A5B980830110511F0E80164
:1007B000D9CFDF91CF911F910F91FF90EF900895C6
:1007C000FC01158E148E848D958D8D3091055CF411
:1007D000DC01AA0FBB1FAE0FBF1F1D921C9201961A
:1007E000958F848FF0CF08950C94E003DB01ED9199
:1007F000FC91DC015D96FC93EE935C97EE0FFF1F7E
:10080000E80FF91F80819181DB0112962D913C91B7
:100810001397822B932B918380830895440F551F48
:10082000480F591F21E030E002C0220F331F6A95A4
:10083000E2F7FA0180819181822B932B918380834F
:100840000895FC018681978168EE73E00E940E0C8A
:100850006115710571F19783868384819581860F77
:10086000971F958384832CE330E0B9010E940E0C1E
:1008700061157105F1F09583848382819381860FE0
:10088000971F93838283B9010E940E0C6115710535
:1008900081F09383828380819181860F971F91835A
:1008A000808368E170E00E940E0C672B11F0918349
:1008B00080830895FC0111821082138212821582B6
:1008C0001482178216820C9421040F931F93FC014B
:1008D0007183608353834283358324831783068324
:1008E0001F910F910C942104FC0180819181089546
:1008F000FC0182819381089521E0FC012283089507
:10090000FC0161157105A9F06C30710591F0CB0106
:100910006CE070E00E940E0C9C018081918121307E
:10092000310519F462EC71E002C06EEB71E00C94D9
:10093000F60308950F931F93CF93DF938C01EB0180
:10094000FC01208131816C30710519F466EE71E093
:100950000CC0CB016CE070E00E940E0C880F991F58
:10096000865C9E4FFC0160817181C9010E94F60383
:10097000BE01C801DF91CF911F910F910C948004AB
:100980006F30710569F0FC018081918161307105E2
:1009900019F066E571E002C062E571E00C94F603BF
:1009A0000895EF92FF920F931F93CF93DF93EC0183
:1009B000CB016AE070E00E940E0C8C01FB01EE0F8F
:1009C000FF1FE25FFE4FE080F180E114F10429F0A7
:1009D000B701888199810E94F60310161106E4F48C
:1009E0000130110541F4EF2831F06AE971E08881A6
:1009F00099810E94F603F801EE0FFF1FEA5DFE4F9A
:100A00006081718188819981DF91CF911F910F91D0
:100A1000FF90EF900C94F603DF91CF911F910F910F
:100A2000FF90EF9008950F931F93CF93DF938C0166
:100A3000EB01209709F451C020910C0130910D0178
:100A4000FC018081918162177307ACF06AEB71E061
:100A50000E94F6038CE390E09C012C1B3D0BE90106
:100A60002F30310561F462EB71E0F80180819181F2
:100A70000E94F60315C066EB71E00E94F603CE31CA
:100A8000D10571F4F8018281882351F066E971E0A3
:100A900080819181DF91CF911F910F910C94F6038A
:100AA000CE010B97069768F4FE01EE0FFF1FEA5F79
:100AB000FE4F60817181F801808191810E94F6036F
:100AC00004C0BE01C8010E94D104BE01C801DF916B
:100AD000CF911F910F910C94C004DF91CF911F9182
:100AE0000F910895EF92FF920F931F93CF93DF938F
:100AF000EC01CB017A01798368830E94E0036AEFFD
:100B000071E0888199810E94F603C7010E947404F4
:100B10008C01C7010E9478047C0180910C019091A6
:100B20000D01E816F90614F00F5F1F4FB801CE0152
:100B30000E949A04B701CE01DF91CF911F910F91CE
:100B4000FF90EF900C941305CF93DF93EC01049684
:100B50000E947C04CE0107960E945A04CE010F9693
:100B60000E94F403CE018D960E945F0084E690E01F
:100B70009B838A83DF91CF9108950F931F9300E0A9
:100B800010E007960E9465041F910F910895CB0114
:100B90006C31710524F06CE170E00E940E0C8F3016
:100BA000910534F02CE130E0A901481B590BCA0132
:100BB0000895EF92FF920F931F93CF93DF93EC0171
:100BC0008B01888199818417950739F0598348836F
:100BD000BA01CE018D960E946300CE010F967C0172
:100BE000012B91F4AE01495F5F4FBC010B970E944E
:100BF0007205B701CE018D96DF91CF911F910F91B4
:100C0000FF90EF900C9461000E94E00300E010E080
:100C10006A817B81600F711FCE010E94C705A80108
:100C2000BC01C7010E940E046A817B81600F711FA5
:100C30006F5F7F4FCE010E94C705A801BC01C701AD
:100C40000E940E046A817B81600F711F6E5F7F4F6F
:100C5000CE010E94C705A801BC01C7010E940E0475
:100C60006A817B81600F711F6D5F7F4FCE010E9493
:100C7000C705A801BC01C7010E940E046A817B81DF
:100C8000600F711F6C5F7F4FCE010E94C705A801E6
:100C9000BC01C7010E940E046A817B81600F711F35
:100CA0006B5F7F4FCE010E94C705A801BC01C70141
:100CB0000E940E040F5F1F4F0D30110509F0A8CFE1
:100CC000B701CE018D960E9461008A819B810196B9
:100CD0006DE170E00E940E0C9B838A83DF91CF91BF
:100CE0001F910F91FF90EF90089580E492E00E9491
:100CF0006B000E947C07FC0120813181428153817D
:100D0000648175818EE692E00E94BD0540916C027F
:100D100050916D0260916A0270916B028EE692E0D2
:100D20000E94D90580E492E00E9416022FE78CE928
:100D300091E0215080409040E1F700C00000D9CF01
:100D40008EE692E00E94A40580E492E00C94650097
:100D5000FC018FB7F89471836083538342831782B9
:100D60001682158214828FBF0895FC019FB7F894F4
:100D70004481558141155105C9F026813781A081F3
:100D8000B181A20FB31F8C912F5F3F4F3783268312
:100D9000628173812617370720F0261B370B3783B4
:100DA0002683415051095583448301C080E09FBF91
:100DB0000895FC01CB014FB7F89426813781820F4B
:100DC000931F628173810E94FA0B0190F081E02DE4
:100DD000E80FF91F80814FBF0895CF93DF93FC0187
:100DE000D62FCFB7F894448155816281738146171D
:100DF000570798F486819781840F951F0E94FA0BFC
:100E0000A081B181A80FB91FDC93848195810196DF
:100E100095838483CFBF8FEF02C0CFBF80E0DF9187
:100E2000CF9108956AE00E94EE0B20E1829F900D21
:100E30001124892F0895982F92959F708F702AE022
:100E4000929F800D11240895CF93C82F88E60E94A9
:100E5000790A8C2F0E94930A0E94830A61E088E637
:100E60000E946C0ACF910C94BE0A1F93CF93DF931C
:100E70001F92CDB7DEB7182F88E669830E94790AE2
:100E80006981862F0E94930A812F0E94930A0F90F6
:100E9000DF91CF911F910C94830ACF93DF9381E16F
:100EA0000E942407D82F82E10E942407C82F61E105
:100EB0008EEE0E94350762E18DED0E94350781E1DB
:100EC0000E9424078E3E29F482E10E9424078D3D72
:100ED00031F081E080939C02DF91CF91089581E011
:100EE00080939D0261E18D2F0E94350762E18C2F76
:100EF000DF91CF910C943507EF92FF920F931F93E0
:100F0000CF93DF93CDB7DEB729970FB6F894DEBF46
:100F10000FBECDBF88E60E94790A80E00E94930A46
:100F20000E94830A67E088E60E946C0A8E010F5FC8
:100F30001F4F7E0188E0E80EF11C0E94BE0AF801F6
:100F400081938F01EE15FF05C1F70E94830A898105
:100F50008F770E941B0790E090939F0280939E02E0
:100F60008A810E941B0790E09093A1028093A002C7
:100F70008B810E941B07082F10E01093A30200939F
:100F8000A2028D810E941B0790E09093A50280939E
:100F9000A402FE808F2D8F710E941B0790E090931A
:100FA000A7028093A6028F81F7FE06C00E941B074E
:100FB00090E08053984F05C00E941B0790E0845931
:100FC000984F9093A9028093A8028C810E941B07DE
:100FD00090E09093AB028093AA020115110529F4C9
:100FE0001092AE021092AD0207C00C30110544F40D
:100FF0001093AE020093AD0281E08093AC0208C072
:101000000C5011091093AE020093AD021092AC0285
:101010008EE992E029960FB6F894DEBF0FBECDBFE1
:10102000DF91CF911F910F91FF90EF9008951F9343
:10103000CF93DF93EC0188E60E94790A80E00E945A
:10104000930A8A859B85813D27E0920734F0805D75
:1010500097409B878A8710E805C08C5697409B87EE
:101060008A8710E088810E9412070E94930A8A8171
:101070000E9412070E94930A8C810E9412070E940C
:10108000930A8C850E9412070E94930A8E810E9407
:1010900012070E94930A88850E941207810F0E94FE
:1010A000930A8A850E9412070E94930ADF91CF91CA
:1010B0001F910C94830AFF920F931F93CF93DF939A
:1010C000EC018B011882FB01108280919D0281113D
:1010D00020C088E60E94790A81E10E94930A0E945A
:1010E000830A62E088E60E946C0A0E94B80A88239C
:1010F00081F00E94BE0AF82E0E94BE0AF8828295F4
:1011000086958695837099E1899F802D1124F80139
:101110008083DF91CF911F910F91FF9008951092DE
:101120001A03449A459AE9EBF0E080818E7F808330
:1011300080818D7F808388E48093B80085E48093EC
:10114000BC000895413268F590911A039111FCCFCB
:1011500091E090931A039FEF9093AF021092F402E4
:10116000940F9093F302880F81608093190385EEAA
:101170008093BC0080911A038130E1F38091F402E6
:10118000841710F44091F40225EF32E0FB01D901FD
:101190008A2F821B841718F48D918193F9CF842FA5
:1011A000089580E00895413240F590911A0391111D
:1011B000FCCF92E090931A039FEF9093AF021092AE
:1011C000F4024093F302FB0165EF72E0DB019A2F1A
:1011D000961B941718F491919D93F9CF90E0880F86
:1011E000991F8093190385EE8093BC00222339F068
:1011F00080911A03823019F4FBCF81E00895809129
:10120000AF028F3F71F08091AF02803231F0809158
:10121000AF02803321F483E0089582E0089584E0F2
:10122000089580E00895613298F420911A032430E3
:1012300089F46093D102FC0183ED92E0DC012A2F56
:10124000281B261718F421912D93F9CF80E00895DB
:1012500081E0089582E0089585ED8093BC0080913F
:10126000BC0084FDFCCF10921A03089585EC809396
:10127000BC0010921A0308951F920F920FB60F929E
:1012800011242F933F934F935F936F937F938F938B
:101290009F93AF93BF93EF93FF938091B900887FA3
:1012A000803609F495C068F5883209F45BC090F483
:1012B000803109F454C038F4882309F4EEC0883032
:1012C00009F44DC0EEC0883109F44CC0803209F4F5
:1012D0005EC0E7C0803409F469C048F4803309F483
:1012E00056C0883309F0DDC08093AF02A1C08035BD
:1012F00009F450C0883509F45EC0883409F0D1C0C3
:10130000CEC0883909F4BFC0A8F4883709F460C09A
:1013100038F4883609F45CC0803709F459C0C1C07C
:10132000883809F4B0C0803909F458C0803809F011
:10133000B8C054C0803B09F47EC038F4803A09F448
:101340005FC0883A09F477C0ACC0803C09F49FC004
:10135000883C09F49CC0883B09F482C0A2C08091FB
:10136000190311C09091F4028091F302981708F0CC
:1013700096C0E091F40281E08E0F8093F402F0E0D9
:10138000EB50FD4F80818093BB0085EC7DC0809346
:10139000AF0285C0E091F40281E08E0F8093F402E9
:1013A0008091BB00F0E0EB50FD4F80839091F40200
:1013B0008091F30265C0E091F40281E08E0F80938A
:1013C000F4028091BB00F0E0EB50FD4F808367C0DA
:1013D00083E080931A031092B002D7CF8091B002BD
:1013E000803208F050C0E091B00281E08E0F80930F
:1013F000B0028091BB00F0E0EF54FD4F8083C5CF79
:101400008091B002803230F4E091B002F0E0EF540D
:10141000FD4F10820E942C096091B00270E0E091B3
:101420001503F091160381EB92E009951092B0023A
:101430000E94360936C084E080931A031092D202CB
:101440001092D102E0911703F09118030995809151
:10145000D102811105C081E08093D1021092D302A4
:10146000E091D20281E08E0F8093D202F0E0ED5243
:10147000FD4F80818093BB009091D2028091D10278
:10148000981708F482CF85E88093BC000AC085ECE9
:101490008093BC0010921A0304C01092AF020E9405
:1014A0002C09FF91EF91BF91AF919F918F917F9107
:1014B0006F915F914F913F912F910F900FBE0F90C1
:1014C0001F9018951092400310923F0310921D0335
:1014D00010921C030C948F08462F613208F040E2F2
:1014E00061E473E00E94A2081092400380933F03DE
:1014F000089591E090931B0380933E0310921D0387
:1015000010921C03089521E040911C036EE173E0EA
:1015100080913E030E94D30810921D0310921C0379
:1015200010921B030895CF93DF931F92CDB7DEB7C0
:10153000898380911B03882391F080911C03803262
:1015400098F480911D03E82FF0E0E25EFC4F998152
:1015500090838F5F80931D0380931C0305C061E01F
:10156000CE0101960E9413090F90DF91CF9108954B
:1015700080913F0390914003891B0895909140030F
:1015800080913F03981748F4E92FF0E0EF5BFC4FA0
:1015900080819F5F90934003089580E0089540E428
:1015A00050E063EA73E08DEE93E00E94A80640E409
:1015B00050E063E673E085EE93E00C94A8060E9489
:1015C000CF0A109262031092610388ED8093C100EC
:1015D00087E68093C4001092C50081E08093F603F3
:1015E0001092F5031092E4031092E30378940895A7
:1015F0000F931F938B019C0160587B47814E9F4F37
:1016000043E0660F771F881F991F4A95D1F7A901FC
:101610009801E4E0220F331F441F551FEA95D1F7CC
:101620000E94220C215031092093C4003093C50040
:101630001F910F9108958DEE93E008959091F60318
:101640009923E1F38093C6001092F6030895109257
:10165000F2031092F103089581E02091F10330919B
:10166000F203232B09F080E00895FF920F931F935C
:10167000CF93DF932091E9033091EA03260F371FC0
:101680004091E7035091E80324173507C8F461152A
:101690007105B1F0EC01F9908C01060F171FC0170E
:1016A000D10731F0699185EE93E00E94ED06F7CF06
:1016B00081E08093F5038F2D0E941E0B81E001C015
:1016C00080E0DF91CF911F910F91FF9008950097D7
:1016D00059F0FC0101900020E9F7BF016150710948
:1016E000681B790B0C94350B80E008951F920F92C4
:1016F0000FB60F9211242F933F934F935F936F93E5
:101700007F938F939F93AF93BF93EF93FF938091BA
:10171000F503882379F08091E9039091EA03892BFE
:1017200039F085EE93E00E94B5068093C60005C0AF
:101730001092F50381E08093F603FF91EF91BF9142
:10174000AF919F918F917F916F915F914F913F9159
:101750002F910F900FBE0F901F9018951F920F9210
:101760000FB60F9211242F933F934F935F936F9374
:101770007F938F939F93AF93BF93EF93FF9380914A
:10178000C6002091610330916203232B31F0E09178
:101790006103F0916203099510C0682F8DEE93E00C
:1017A0000E94ED06811109C08091E3039091E4034A
:1017B00001969093E4038093E303FF91EF91BF912F
:1017C000AF919F918F917F916F915F914F913F91D9
:1017D0002F910F900FBE0F901F901895991B79E0D5
:1017E00004C0991F961708F0961B881F7A95C9F7B1
:1017F00080950895AA1BBB1B51E107C0AA1FBB1F00
:10180000A617B70710F0A61BB70B881F991F5A958C
:10181000A9F780959095BC01CD01089597FB072EFF
:1018200016F4009407D077FD09D00E94FA0B07FC4C
:1018300005D03EF4909581959F4F089570956195E0
:101840007F4F0895A1E21A2EAA1BBB1BFD010DC0FC
:10185000AA1FBB1FEE1FFF1FA217B307E407F50760
:1018600020F0A21BB30BE40BF50B661F771F881F3C
:10187000991F1A9469F760957095809590959B01D2
:10188000AC01BD01CF010895EE0FFF1F0590F4914B
:10189000E02D0994AEE0B0E0E0E5FCE00C94F20E3F
:1018A0000D891E8986E08C831A8309838FEF9FE759
:1018B0009E838D83AE01475E5F4F6F89788DCE0129
:1018C00001960E946C0CEF81F885E00FF11F1082E9
:1018D0002E96E4E00C940E0FACE0B0E0E2E7FCE002
:1018E0000C94E40E7C016B018A01FC0117821682C4
:1018F000838181FFBDC1CE0101964C01F701938127
:10190000F60193FD859193FF81916F01882309F47E
:10191000ABC1853239F493FD859193FF81916F01BD
:10192000853229F4B70190E00E94540EE7CF512C84
:10193000312C20E02032A0F48B3269F030F4803278
:1019400059F0833269F420612CC08D3239F0803334
:1019500039F4216026C02260246023C0286021C0A1
:1019600027FD27C030ED380F3A3078F426FF06C047
:10197000FAE05F9E300D1124532E13C08AE0389E8A
:10198000300D1124332E20620CC08E3221F426FD3E
:101990006BC1206406C08C3611F4206802C0883602
:1019A00041F4F60193FD859193FF81916F018111BF
:1019B000C1CF982F9F7D9554933028F40C5F1F4F13
:1019C000FFE3F9830DC0833631F0833771F083353F
:1019D00009F05BC022C0F801808189830E5F1F4F30
:1019E00044244394512C540115C03801F2E06F0E89
:1019F000711CF801A080B18026FF03C0652D70E046
:101A000002C06FEF7FEFC5012C870E94490E2C01A9
:101A100083012C852F77222E17C03801F2E06F0E3C
:101A2000711CF801A080B18026FF03C0652D70E015
:101A300002C06FEF7FEFC5012C870E943E0E2C0184
:101A40002C852068222E830123FC1BC0832D90E06F
:101A500048165906B0F4B70180E290E00E94540E97
:101A60003A94F4CFF50127FC859127FE81915F011F
:101A7000B70190E00E94540E31103A94F1E04F1AF1
:101A800051084114510471F7E5C0843611F08936CC
:101A900039F5F80127FF07C0608171818281938148
:101AA0000C5F1F4F08C060817181882777FD80958A
:101AB000982F0E5F1F4F2F76B22E97FF09C090957B
:101AC0008095709561957F4F8F4F9F4F2068B22E04
:101AD0002AE030E0A4010E94860EA82EA81844C077
:101AE000853729F42F7EB22E2AE030E025C0F22F70
:101AF000F97FBF2E8F36C1F018F4883579F0B4C065
:101B0000803719F0883721F0AFC02F2F2061B22E17
:101B1000B4FE0DC08B2D8460B82E09C024FF0AC00E
:101B20009F2F9660B92E06C028E030E005C020E166
:101B300030E002C020E132E0F801B7FE07C060816A
:101B40007181828193810C5F1F4F06C0608171811A
:101B500080E090E00E5F1F4FA4010E94860EA82E29
:101B6000A818FB2DFF77BF2EB6FE0BC02B2D2E7FA6
:101B7000A51450F4B4FE0AC0B2FC08C02B2D2E7E72
:101B800005C07A2C2B2D03C07A2C01C0752C24FFA4
:101B90000DC0FE01EA0DF11D8081803311F4297E14
:101BA00009C022FF06C07394739404C0822F867804
:101BB00009F0739423FD13C020FF06C05A2C731440
:101BC00018F4530C5718732C731468F4B70180E29F
:101BD00090E02C870E94540E73942C85F5CF7314DB
:101BE00010F4371801C0312C24FF12C0B70180E374
:101BF00090E02C870E94540E2C8522FF17C021FFF5
:101C000003C088E590E002C088E790E0B7010CC00F
:101C1000822F867859F021FD02C080E201C08BE25C
:101C200027FD8DE2B70190E00E94540EA51438F410
:101C3000B70180E390E00E94540E5A94F7CFAA9423
:101C4000F401EA0DF11D8081B70190E00E94540E6D
:101C5000A110F5CF332009F451CEB70180E290E016
:101C60000E94540E3A94F6CFF7018681978102C004
:101C70008FEF9FEF2C96E2E10C94000FFC01059092
:101C8000615070400110D8F7809590958E0F9F1F7E
:101C90000895FC016150704001900110D8F78095C3
:101CA00090958E0F9F1F08950F931F93CF93DF93EF
:101CB000182F092FEB018B8181FD03C08FEF9FEF60
:101CC00020C082FF10C04E815F812C813D81421770
:101CD00053077CF4E881F9819F012F5F3F4F3983DF
:101CE0002883108306C0E885F985812F0995892B03
:101CF00029F72E813F812F5F3F4F3F832E83812F16
:101D0000902FDF91CF911F910F910895FA01AA278B
:101D1000283051F1203181F1E8946F936E7F6E5F2E
:101D20007F4F8F4F9F4FAF4FB1E03ED0B4E03CD0DC
:101D3000670F781F891F9A1FA11D680F791F8A1FBF
:101D4000911DA11D6A0F711D811D911DA11D20D026
:101D500009F468943F912AE0269F11243019305DE0
:101D60003193DEF6CF010895462F4770405D4193D1
:101D7000B3E00FD0C9F7F6CF462F4F70405D4A331E
:101D800018F0495D31FD4052419302D0A9F7EACFE6
:101D9000B4E0A6959795879577956795BA95C9F715
:101DA00000976105710508959B01AC010A2E069408
:101DB0005795479537952795BA95C9F7620F731FC1
:101DC000841F951FA01D08952F923F924F925F92FE
:101DD0006F927F928F929F92AF92BF92CF92DF923B
:101DE000EF92FF920F931F93CF93DF93CDB7DEB7A0
:101DF000CA1BDB0B0FB6F894DEBF0FBECDBF099434
:101E00002A88398848885F846E847D848C849B848A
:101E1000AA84B984C884DF80EE80FD800C811B8198
:101E2000AA81B981CE0FD11D0FB6F894DEBF0FBEC7
:0A1E3000CDBFED010895F894FFCF37
:101E3A000F000C000B000A00090004002800000033
:101E4A009E01AA01A201AE01A6019E015A018201C8
:101E5A00860162016E016A01660192017A018E01B0
:101E6A00720176018A017E015E01DE01D201F6016C
:101E7A00EE01D601DA01EA01F201C601CE01E20160
:101E8A00CA010C00FC000C00FE000C00003C0B0018
:101E9A000F000B00F00F0B0000700A001F000A0071
:101EAA00C0070A00003C0900070009007C0009007D
:101EBA00C0030900007C08003F000800E001080098
:101ECA00007E07000F000700E00107000006070078
:101EDA00007006003F000600C07F05001F000500D5
:101EEA00E01F050000600400600004001F000400F9
:101EFA00007E0400007C03000F000300F0000300D2
:101F0A00000F0300007002003F000200E00102001F
:101F1A00007E0100070001001E000100E000010030
:101F2A00800F010000780000780000000037686523
:101F3A006C6C6F20406865726500706F6E67005E3A
:101F4A0025643A25643A25642D25642F25642F25B6
:101F5A00642D25645425642E2564240076616C75ED
:101F6A00653A202564006D6F64653A202564000097
:00000001FF
